:020000020000FC
:020000005AC0E4
:02000C001AC018
:020024003DC0DD
:02002C002EC0E4
:1000400017C088278093680001E08EEF4093680016
:1000500083B1887019F00E947400189583B1807183
:1000600011F051D0189583B1807209F05BD01895CA
:10007000809100018395863028F0009368008827DE
:1000800080936E0080930001189580910101839503
:100090008C3018F001E003B988278093010118958E
:1000A000809102018395883118F002E003B9882716
:1000B00080930201189503E004B918E315B9789408
:1000C00041E04093680010936B0027E02093B1005B
:1000D0000DE00093810011E000E01093890000938F
:1000E000880005E005BDFFCF85B18C7F85B98827E5
:1000F00080930001809301018093020180936F003F
:1001000080937000189580916F00827039F0882775
:1001100080936F0085B18E7F85B9089582E08093CA
:100120006F00089580917000817039F085B18D7FE6
:1001300085B9882780937000089581E080937000CE
:02014000089520
:00000001FF
